S113000000600020D5000000430100004D05000001
S02B0000433A5C55736572735C41444D494E545C446F63756D656E74735C4D43555870726573736F4944455F5C
S113001000000000000000000000000000000000DC
S11300200000000000000000000000004701000084
S11300300000000000000000490100004B01000026
S11300404F010000570100005F010000670100003C
S11300506F010000770100007F01000087010000AC
S11300608F010000970100009F010000A70100001C
S1130070AF010000B7010000BF010000C70100008C
S1130080CF010000D7010000DF010000E7010000FC
S1130090EF010000F7010000FF010000070200006B
S11300A00F020000170200001F02000027020000D8
S11300B02F020000370200003F0200004702000048
S11300C0782F000080E0FF1F0800000088E0FF1F79
S11300D0F800000010B572B601F030F90D4B07E0DE
S11300E0186859681C000C349A6800F019F8230049
S11300F0094A9342F4D306E018681C00083459688E
S113010000F017F82300054A9342F5D362B602F0D3
S1130110DDFCFEE7C0000000CC000000D4000000BD
S113012010B50023934203D210C810C10433F9E779
S113013010BD00238B4203D2002204C00433F9E72C
S11301407047FEE7FEE7FEE7FEE7FEE7FEE710B5D1
S1130150FFF7FCFF10BD10B5FFF7F8FF10BD10B599
S1130160FFF7F4FF10BD10B5FFF7F0FF10BD10B599
S1130170FFF7ECFF10BD10B5FFF7E8FF10BD10B599
S1130180FFF7E4FF10BD10B5FFF7E0FF10BD10B599
S113019000F090FC10BD10B500F09CFC10BD10B533
S11301A0FFF7D4FF10BD10B5FFF7D0FF10BD10B599
S11301B000F03AFE10BD10B500F0ACFF10BD10B554
S11301C000F0BAFF10BD10B5FFF7C0FF10BD10B5A9
S11301D0FFF7BCFF10BD10B5FFF7B8FF10BD10B599
S11301E0FFF7B4FF10BD10B5FFF7B0FF10BD10B599
S11301F0FFF7ACFF10BD10B5FFF7A8FF10BD10B599
S1130200FFF7A4FF10BD10B5FFF7A0FF10BD10B598
S1130210FFF79CFF10BD10B5FFF798FF10BD10B598
S1130220FFF794FF10BD10B5FFF790FF10BD10B598
S1130230FFF78CFF10BD10B5FFF788FF10BD10B598
S1130240FFF784FF10BD10B5FFF780FF10BDFFFF5F
S1130250FFFFFFFFFFFFFFFFFFFFFFFFFFFFFFFFAA
S1130260FFFFFFFFFFFFFFFFFFFFFFFFFFFFFFFF9A
S1130270FFFFFFFFFFFFFFFFFFFFFFFFFFFFFFFF8A
S1130280FFFFFFFFFFFFFFFFFFFFFFFFFFFFFFFF7A
S1130290FFFFFFFFFFFFFFFFFFFFFFFFFFFFFFFF6A
S11302A0FFFFFFFFFFFFFFFFFFFFFFFFFFFFFFFF5A
S11302B0FFFFFFFFFFFFFFFFFFFFFFFFFFFFFFFF4A
S11302C0FFFFFFFFFFFFFFFFFFFFFFFFFFFFFFFF3A
S11302D0FFFFFFFFFFFFFFFFFFFFFFFFFFFFFFFF2A
S11302E0FFFFFFFFFFFFFFFFFFFFFFFFFFFFFFFF1A
S11302F0FFFFFFFFFFFFFFFFFFFFFFFFFFFFFFFF0A
S1130300FFFFFFFFFFFFFFFFFFFFFFFFFFFFFFFFF9
S1130310FFFFFFFFFFFFFFFFFFFFFFFFFFFFFFFFE9
S1130320FFFFFFFFFFFFFFFFFFFFFFFFFFFFFFFFD9
S1130330FFFFFFFFFFFFFFFFFFFFFFFFFFFFFFFFC9
S1130340FFFFFFFFFFFFFFFFFFFFFFFFFFFFFFFFB9
S1130350FFFFFFFFFFFFFFFFFFFFFFFFFFFFFFFFA9
S1130360FFFFFFFFFFFFFFFFFFFFFFFFFFFFFFFF99
S1130370FFFFFFFFFFFFFFFFFFFFFFFFFFFFFFFF89
S1130380FFFFFFFFFFFFFFFFFFFFFFFFFFFFFFFF79
S1130390FFFFFFFFFFFFFFFFFFFFFFFFFFFFFFFF69
S11303A0FFFFFFFFFFFFFFFFFFFFFFFFFFFFFFFF59
S11303B0FFFFFFFFFFFFFFFFFFFFFFFFFFFFFFFF49
S11303C0FFFFFFFFFFFFFFFFFFFFFFFFFFFFFFFF39
S11303D0FFFFFFFFFFFFFFFFFFFFFFFFFFFFFFFF29
S11303E0FFFFFFFFFFFFFFFFFFFFFFFFFFFFFFFF19
S11303F0FFFFFFFFFFFFFFFFFFFFFFFFFFFFFFFF09
S1130400FFFFFFFFFFFFFFFFFFFFFFFFFEFFFFFFF9
S113041090B585B000AFF860B9603B60FB1D1A7001
S1130420FB1D1B78002B03D1084B180000F094FF30
S11304303C68BA68FB1D1978F868230002F0E4FAF6
S113044003001800BD4605B090BDC046882C0000CE
S113045090B58BB000AFF860B9607A603B60FB6820
S1130460002B03D12A4B180000F076FFFB681A79A1
S1130470284B1A71FB681A68264B1A60254B1B79A6
S1130480062B05D03EDC012B02D0032B1DD039E016
S11304901C243B19180000F019FE21007B18BA68CF
S11304A01A601C4B1B687A687918180000F012FD5A
S11304B0184B1B680121180002F026FA154B1B6823
S11304C00121180002F040FA1DE010243B19180025
S11304D000F086FC21007B18BA681A600D4B1B687B
S11304E07A687918180000F043FB0A4B1B68012155
S11304F0180002F049FA074B1B680121180002F0AA
S113050063FA00E0C046C046BD460BB090BDC0468D
S1130510CC2C000088E0FF1F80B500AF02F0C3FAC6
S113052002F0AEFA02F0B8FA00F034FE054B1800FF
S113053002F096F8044B1B685A1C034B1A60C04621
S1130540F8E7C046E82C000090E0FF1F0420714645
S1130550084202D0EFF3098001E0EFF308808169DB
S11305600A88054B9A4200D0FEE7023181612021BE
S113057001607047C0460000ABBE000080B582B089
S113058000AF7860084B1B68084A134019007B6869
S11305909A04C0231B031A40034B0A431A60C04643
S11305A0BD4602B080BDC04600700440FFFFF3FFAB
S11305B080B582B000AF7860084A094BD358094A25
S11305C01A407B68190480235B020B4003491343E0
S11305D0034A8B50C046BD4602B080BD0070044043
S11305E004100000FFFFFEFF80B500AF064B1B6840
S11305F0002B03D1054B180000F0AEFE024B1B6824
S11306001800BD4680BDC04694E0FF1FF82C0000D2
S113061080B582B000AFFFF7E7FF03007B607B6823
S1130620002B01D17B6841E0224B1B78DBB2DB0855
S1130630DAB2FB1C07210A401A70FB1C1B787A688B
S1130640DA4013007B601B4B5B78DBB21B09DAB228
S1130650BB1C03210A401A70BB1C1B78002B23D03F
S1130660FB1C1B78072B14D01BDC052B02DC002B96
S113067003DA16E0062B04D013E07B685B097B6089
S113068013E07B681421180002F065FA03007B6014
S11306900BE07B680C21180002F05DFA03007B601C
S11306A003E000237B6000E0C0467B681800BD4681
S11306B002B080BD0040064080B500AF074B9B7977
S11306C0DBB21A001023134003D1FFF7A1FF03008C
S11306D001E0034B1B681800BD4680BD0040064086
S11306E080E0FF1F80B582B000AF0F4A0F4BD35894
S11306F01B0C0122134002D0012B05D00CE000F0AA
S113070033F803007B600AE000F070F803007B60BC
S11307107B685B087B6002E000237B60C0467B68EB
S11307201800BD4602B080BD0070044004100000F3
S113073080B582B000AF786009497B685B68094A7C
S11307408B507B681B781800FFF732FF7B685B785F
S11307501800FFF713FFC046BD4602B080BDC04677
S1130760007004404410000080B582B000AF1D4BFF
S11307705B78DBB21A000223134006D1194B9B7934
S1130780DBB21A002023134001D0002326E0FFF738
S113079093FF03007B607B68002B01D17B681DE025
S11307A0104BDB78DBB25B09DAB2FB1C03210A4095
S11307B01A700C4BDB78DBB2DB09DAB2BB1C01210B
S11307C00A401A70FB1C1978BB1C1A78064B4900A6
S11307D08A185200D35A1A007B6853431800BD4646
S11307E002B080BD00400640382D000080B582B0C4
S11307F000AF184B9B79DBB21A004023134001D1A0
S1130800002323E002F01DF903007B607B68002BCA
S113081003D1114B180000F09FFD0E4B1B79DBB286
S11308201A001F23134001331900786802F093F96A
S113083003007B60074B5B79DBB21A001F23134074
S113084018331A007B6853437B607B681800BD46ED
S113085002B080BD00400640182D000090B585B060
S113086000AF040008001100FB1D221C1A70BB1D00
S1130870021C1A707B1D0A1C1A70404B9B79DBB258
S11308809B0803221340FB603C4B9B79DAB20B209C
S11308903B1801210A401A70384B1B7ADBB25B0803
S11308A0DAB20A243B1907210A401A707A1D3B194F
S11308B012781B789A422ED03B181B78012B19D141
S11308C0FB68012B06D02D4B1B78DBB21A000223E8
S11308D013400FD0294B5B78DBB2284A01218B43AC
S11308E0DBB25370C046254B9B79DBB21A0001235F
S11308F01340F8D1214B1B7ADBB22F229343DAB297
S11309007B1D1B78DB18DBB20E210B40DBB21B49CD
S11309101343DBB20B72194B5B78DBB201229343B6
S1130920DAB2BB1D1B7801210B40DBB21349134320
S1130930DBB24B70114B1B78DBB203229343DAB268
S11309400E49FB1D1B781343DBB20B70FB68012BB4
S113095004D0FB1D1B78022213400AD0C046074B6B
S11309609B79DBB21A0001231A40BB1D1B789A4203
S1130970F5D100231800BD4605B090BD00400640E7
S113098080B584B000AF3A60FB1D021C1A70BB1D19
S11309900A1C1A700F217B1800221A702E4A0E238B
S11309A0FB18D2781A702C4B9B79DBB21A001023F7
S11309B013400AD17B1801221A70274BDB78DBB273
S11309C0254A20214B40DBB2D370234B1B78DBB28A
S11309D03B221340DBB2204A04210B43DBB21370E9
S11309E0C0461D4B9B79DBB21B0901221340012B2E
S11309F0F7D10F23FB181B78002B04D0164A0E23C3
S1130A00FB181B78D3700E23FB181B781F2213408E
S1130A10DAB2FB1D1B78DB01D9B2BB1D1B785B016D
S1130A20DBB260200340DBB20B43DBB20A49134361
S1130A30DBB2CB70C046084B9B79DBB29B08032228
S1130A401340F8D13B68002B01D03B689847002342
S1130A501800BD4604B080BD0040064080B582B099
S1130A6000AF786039607B68DB78DBB21A00102352
S1130A70134006D17B689B78DBB21A002023134015
S1130A8006D00A4B1B6839687A681000984705E05D
S1130A90074B1B6839687A6810009847BFF34F8F7B
S1130AA0C046C046BD4602B080BDC046A0E0FF1FA0
S1130AB0A4E0FF1F80B500AF044B1B68044A190073
S1130AC01000FFF7CBFFC046BD4680BD98E0FF1F76
S1130AD00060064080B500AF044B5B68044A19000F
S1130AE01000FFF7BBFFC046BD4680BD98E0FF1F66
S1130AF00070064080B584B000AF78607B681B0C42
S1130B00084A94466344FB60FB6819687B681B04CD
S1130B101B0C01229A40FB680A431A60C046BD467A
S1130B2004B080BD0070044080B584B000AF78602C
S1130B300023FB6006E00C4A7B68934206D0FB6806
S1130B400133FB60FB68002BF5D000E0C046FB6876
S1130B50002B03D0054B180000F0FEFBFB681800C7
S1130B60BD4604B080BDC04600A00640482D00002C
S1130B70B0B58CB000AFF860B9607A60BB68002B88
S1130B8003D1934B180000F0E7FBBB681B68002BF4
S1130B9003D1904B180000F0DFFB2C23FB1800223C
S1130BA01A8000237B62BB681B68BB6104233B6221
S1130BB05AE0BB681B683A6A53431900786801F02D
S1130BC0CAFF03001A002A217B181A800A00BB18E6
S1130BD01B88002B02D1BB1801221A802A257B19FD
S1130BE01B883A6A53431900786801F0B4FF030084
S1130BF07B61BB681B687A69D31AFB61BB681C689C
S1130C007B191B8801331A003B6A53431900786827
S1130C1001F0A1FF0300E31AFA699A4213D9BB68F1
S1130C201C687B191B8801331A003B6A5343190063
S1130C30786801F090FF0300E31AFB617B191A88BE
S1130C407B1901321A80FA69BB699A4209D8FB6997
S1130C50BB613B6A7B622C23FB182A22BA181288D8
S1130C601A803B6A01333B623B6A202BA1D9BB68E3
S1130C701B686421180001F06EFF03001A001300C2
S1130C805B009B18BA699A4201D9534B9CE0FB68FC
S1130C901800FFF749FF514B1800FFF72BFFFB68C3
S1130CA0DB78DBB20C229343DAB2FB68DA707B6A3E
S1130CB0032B0AD97B6A072B07D8FB68DB7ADBB2E4
S1130CC002221343DAB2FB68DA72FB689B7ADBB266
S1130CD01F229343DAB27B6ADBB2013BDBB21343DC
S1130CE0DAB2FB689A72FB689B7ADBB21F229343E9
S1130CF0DAB22C217B181B881B0A9BB2DBB213438C
S1130D00DAB2FB681A707B181B88DAB2FB685A7077
S1130D10FB689B78DAB22F203B1817218A431A709C
S1130D20BB689B799B00DBB204221340D9B23B1809
S1130D303A1812780A431A70BB681B79002B09D041
S1130D40BB681A793B181B781343DAB23B1810219D
S1130D500A431A70FB682F203A1812789A70FB68BD
S1130D601B78DBB220229343DAB2FB681A70FB686B
S1130D701B78DAB2BB685B795B01DBB220210B40E4
S1130D80DBB21343DAB2FB681A703B18FA68D27804
S1130D901A70BB68DB79002B05D03B183A1812781F
S1130DA008210A431A70BB681B7A002B06D02F2235
S1130DB0BB18BA18127804210A431A70FB682F2250
S1130DC0BA181278DA7000231800BD460CB0B0BD12
S1130DD0802D00009C2D0000B50400000A00341092
S1130DE080B582B000AF78607B68002B03D10D4BD7
S1130DF0180000F0B1FA7B68E12252021A607B68A5
S1130E0000221A717B6800225A717B6800229A7151
S1130E107B680022DA717B6800221A72C046BD46E4
S1130E2002B080BDC42D000080B500AF044B1A6829
S1130E30044B1B68044819009047C046BD4680BD5A
S1130E40ACE0FF1FA8E0FF1F00A0064080B584B0FF
S1130E5000AF78607B681B0C084A94466344FB60CF
S1130E60FB6819687B681B041B0C01229A40FB6811
S1130E700A431A60C046BD4604B080BD00700440F9
S1130E8080B584B000AF78600323BB600023FB60AF
S1130E9009E00E4BFA689200D3587A689A4207D058
S1130EA0FB680133FB60FA68BB689A42F1D300E047
S1130EB0C046FA68BB689A4203D3054B180000F099
S1130EC04BFAFB681800BD4604B080BDE02D00005D
S1130ED0F82D0000B0B586B000AFF860B9607A6054
S1130EE0BB68002B03D1754B180000F035FABB68C2
S1130EF01B68002B03D1724B180000F02DFA162446
S1130F003B1900221A801523FB1800221A700023B3
S1130F103B61BB681B681B011900786801F01BFE6C
S1130F2003001A003B191A803B191B88002B02D1BD
S1130F303B1901221A8016257B191B881B011900F5
S1130F40786801F008FE03001A00BB681B68D31A16
S1130F503B61BB681C687B191B8801331B011900AA
S1130F60786801F0F8FD0300E31A3A699A4211D94E
S1130F70BB681C687B191B8801331B011900786846
S1130F8001F0E9FD0300E31A3B617B191A887B1920
S1130F9001321A80BB681B686421180001F0DBFD74
S1130FA003001A0013005B009B183A699A4201D9A6
S1130FB0444B7EE0FB681800FFF762FF0200424BDF
S1130FC09200D3581800FFF741FFFB68DB78DBB2CF
S1130FD00C229343DAB2FB68DA70FB681B78DBB24D
S1130FE01F229343DAB216217B181B881B0A9BB27B
S1130FF0DBB21343DAB2FB681A707B181B88DAB2CF
S1131000FB685A70FB689B78DAB215203B181721ED
S11310108A431A70BB689B799B00DBB2042213409D
S1131020D9B23B183A1812780A431A70BB681B7974
S1131030002B09D0BB681A793B181B781343DAB22A
S11310403B1810210A431A70FB6815203A181278CD
S11310509A70FB681B78DBB220229343DAB2BB6838
S11310605B795B01DBB220210B40DBB21343DAB2C4
S1131070FB681A703B18FA68D2781A70BB68DB797F
S1131080002B05D03B183A18127808210A431A702D
S1131090BB681B7A002B06D01522BB18BA1812782D
S11310A004210A431A70FB681522BA181278DA7000
S11310B000231800BD4606B0B0BDC046242E000073
S11310C0402E0000F5030000EC2D000080B582B036
S11310D000AF78607B68002B03D10D4B180000F043
S11310E03BF97B68E12252021A607B6800221A7184
S11310F07B6800225A717B6800229A717B68002207
S1131100DA717B6800221A72C046BD4602B080BD07
S1131110682E000080B500AF044B1A68044B5B686E
S1131120044819009047C046BD4680BDBCE0FF1F7F
S1131130B0E0FF1F00B0064080B500AF044B1A6852
S1131140044B9B68044819009047C046BD4680BDC7
S1131150BCE0FF1FB0E0FF1F00C0064080B582B0B6
S113116000AF7860084A094BD358094A1A407B6893
S11311709906C0231B050B4003491343034A8B50B4
S1131180C046BD4602B080BD00700440041000009B
S1131190FFFFFFF380B582B000AF0120FFF7DEFF51
S11311A0FFF7A0FA03007B607B68E1225102044848
S11311B00322FFF72DF9C046BD4602B080BDC046EC
S11311C000A0064080B500AF034A044B0449D15047
S11311D0C046BD4680BDC0460070044044100000B7
S11311E00000031080B582B000AF074B7B6000E0C5
S11311F0C0467B685A1E7A60002BF9D1C046C046AF
S1131200BD4602B080BDC0463075000080B500AF59
S1131210FFF7D8FF002000210A4B1A0001F019FC47
S11312200023002101221800FFF718FB064B1800C9
S1131230FFF77EFA054BA02252041A60C046BD4651
S113124080BDC046E5110000842E000084E0FF1F2D
S113125080B584B000AF78607B681B0C084A944664
S11312606344FB60FB6819687B681B041B0C012248
S11312709A40FB680A431A60C046BD4604B080BD6C
S11312800070044080B586B000AFF860B9607A6041
S11312907B68002B03D1084B180000F05DF8BB6895
S11312A09B00FA68D3187B617B697A6812881A807C
S11312B0C046BD4606B080BD8C2E000080B582B00D
S11312C000AF194B1800FFF7C3FF3B1D00221A8023
S11312D03B1D5A7807218A43111C02220A435A7083
S11312E03B1D12481A000121FFF7CCFF3B000022EE
S11312F01A803B005A7807218A43111C02220A43B0
S11313005A703B0009481A000221FFF7BBFF084A44
S1131310084BD3580649084A1340064A8B50C04626
S1131320BD4602B080BDC04609003810009004409C
S11313300070044010100000F8FFFEFF80B500AFFD
S1131340044A88235B010021D15001F0BAFBC04656
S1131350BD4680BD0070044070B505000E4C0F48BA
S1131360210001F0D3FB2100280001F0CFFB0C4A3F
S1131370111DCB6F013BCB67002B07DB936F591C0F
S113138091670A221A7000F00DF870BD21000A203E
S113139000F02EF8F7E7C04638E1FF1F102F0000D9
S11313A0C0E0FF1F18200149ABBE704726000200B1
S11313B02023C26810B59A43C2608369826A04001C
S11313C093420CD000F0BCF8E368074A1A4010239B
S11313D01343E360A36AA3612369E3622360E268C1
S11313E0024B1340E36010BDEFCFFFFFBFBFFFFF11
S11313F0F8B5CA684F4B050013400C00CB60930648
S113140002D50800FFF7D4FFA268E668531C0FDA80
S1131410B3050DD402235B429B1AA36090235B02A5
S11314201E432368E6605A1C22601D70E8B20AE07D
S1131430414A3240022A07D00023A36080331E436E
S1131440E66001204042F8BD80213C4B0902334054
S11314508B420AD10021200000F04EF9E3689B067C
S113146002D52000FFF7A4FFE6689023F0225B0278
S113147033431201E360164210D1606901F0E5FBC9
S1131480002821D073051FD5230024332361236052
S11314900123E36192235B023343E360902109015A
S11314A0226826690B4225D0E36A9A4200D91300C8
S11314B0991BB34217D1731CE3622360E3695A1E7C
S11314C0A26023633570B1E780277F00380000F005
S11314D003F99423E2685B0233431A4320612060DA
S11314E0E761E260DAE72200300000F059F80028F2
S11314F0E1D0A6E7511CE8B221601070E26A2168CD
S11315008A4200D91100E269891B22635B0504D475
S11315100A2802D08A4200DD88E700232200300036
S1131520E6622660A36000F03BF8002800D088E75C
S11315307CE7C046FFFFF7FF8A10000010A0000000
S1131540C368154A70B51A40C26082220400056956
S11315500168C66A1A40022A02D00120404270BDC6
S113156080221800520210401342F8D0B14200D237
S113157031008D4208D10020E268084BE562134037
S11315802560A060E360EAE722002800491B00F020
S113159007F80028EFD0E0E7FFFFF7FFFFFFFEFFAB
S11315A0F7B5D5680F00140056690190EB0205D514
S11315B0102330001D4301F042FBA061104B1D427B
S11315C00FD03000A16901F04CFB002806DA80231B
S11315D00120E26840421343E3600FE0094B1D40E1
S11315E0E56001993A00300001F047FB4100A3692E
S11315F04908791A5918A1610028E8D1FEBDC046EE
S113160010000200EFFFFDFFF7B50026314FC51CA7
S113161002003C68AD08B04215D02800EB1C9C4683
S11316200A300190002C10D10C32100001F092F815
S1131630431C08D080239B05036045608460002E12
S113164046D138601EE00020FEBD80212368490594
S11316508B423AD1A6686368002E0BD08020316893
S11316604005814206D171680333CB186360B368C7
S1131670A360EFE7AB4207DB9C4505DB80239B05BA
S1131680236020000C30DFE701998B4210D98022BF
S113169020008021920522600C30AA005B1B821876
S11316A04905033B6560A260116053609660CBE717
S11316B0002E0AD19B00D01A01F04CF8431CC2D072
S11316C080239B0523606560DBE72600A468A9E707
S11316D0B060D7E778E1FF1F10B5FFF795FF041E50
S11316E005D11722034901F0C8FAFFF75BFE200079
S11316F010BDC046252F0000F7B53A4BC66804005C
S11317000D0000921E4202D102273800FEBD43693B
S11317101800019301F099FA071EF5D1009B012BE3
S113172005D0022B2DD0002B05D00237EDE7200089
S113173000F05CF82D18002DE6DBB30404D5236813
S1131740E26A9A4200D2E362A069A8420FDCE26A2C
S11317502368934200D213002269009200991A1858
S1131760521AAA4203DB226B8118A94228DC2023E7
S11317701E430023A562A36063601B4B1E40E6600A
S1131780C3E7019801F05BFAE268002804DA8023D9
S113179013430127E360B8E7E16A2368994200D95B
S11317A00B00A1695B1821695B1A920603D5A26A32
S11317B0934200DA1300834200DA0300ED18BAE71B
S11317C02D1AB10701D5AA1AA260F20703D5009A0F
S11317D09B1AEB1A6360009B5D19202325609E43CE
S11317E0CBE7C04603001000BFCFF7FFC2689307E2
S11317F005D1212201200E4B40421A60704720235C
S1131800134012030AD5002B02D0806A0138F5E791
S11318100368826900699B18181AF7E7002B01D046
S1131820806AEBE70368826900699B18181AE5E788
S11318307CE1FF1F37B5184C18492200002000F046
S1131840ABFF802380225B0000212000D20000F047
S11318502FFF134C134D22002900012000F09CFFA0
S1131860802380225B0000212000D20000F020FFB2
S11318700D4B1B680193022B0DDD0C4C290022003B
S1131880022000F089FF80238022002120005B00D9
S1131890D20000F00DFF37BDC0E0FF1F3D2F000058
S11318A0FCE0FF1F3F2F00000C2F000038E1FF1F5A
S11318B0F0B5CFB00A92559A0400089200220B9317
S11318C0549B069218785A1C0792002802D1069855
S11318D04FB0F0BD252839D10422802100250227EC
S11318E09446079B243889001A00167801332B2E5E
S11318F05AD046D8202E59D0232E5AD02A2E44D13D
S1131900089980C9002F02DA01207F424540023243
S11319101E7807920891F8430023C01738401490AA
S11319200C932E2E57D1079B1E782A2E45D00A21C0
S113193001333200303AD0B20793092846D80C98C4
S11319401E78484312180C920133F2E7069B0B9A57
S11319505D1CDB179A4204DC0CD10A9B069A934265
S113196008D9A368013BA360002B06DB23685A1C3B
S113197022601870079B0695A4E72100FFF738FD45
S1131980F8E72D2E0ED0302E15D000270A20320075
S1131990303AD1B207930929BDD847431E78D719E5
S11319A00133F4E705439FE73D439DE76246154352
S11319B09AE70822FBE70D4396E7089B04CB0C92B9
S11319C0079A089313005678023307930C9B002B55
S11319D018DB10231D436C2E09D1079B1E786C2E37
S11319E013D15E7860231D43079B023307934C2E6B
S11319F001D0712E0FD1079B1E7860231D43079BD6
S1131A00013314E000230C93E5E7079B01330793AC
S1131A1020231D43EBE7682E70D1079B1E78682EA8
S1131A2007D180235B001D43079B5E780233079335
S1131A3004E0079B0133079380231D43782E09DCC0
S1131A40572E67DC412E00D1FBE200DD89E0002E39
S1131A5000D1EDE0149B0122013B0C932B001340B9
S1131A603993069B15421ED130233893AB0501D41C
S1131A7020233893069B2493DB1725930C9B013B6F
S1131A800C9300D48DE0149B591E00239F4200DD6B
S1131A900B00069A14989B1800220238974200DD26
S1131AA04A4212180C920B995A1C0692DA17914268
S1131AB003DC0CD10A9A9A4209D9A368013BA360BA
S1131AC0002B00DA8EE023685A1C22601E70399BBA
S1131AD0089F002B0FD0069B0C9D2293DB172393AA
S1131AE0013D00D483E00C9BD843C0171840069BEB
S1131AF01B180693089F069D08973BE76A2E04D19E
S1131B0040231D43079B1E787AE77A2EFAD0742E61
S1131B1094D1F7E73000583820289BD801F081F899
S1131B2065019AFF9AFF9AFF9AFF9AFF9AFF9AFF1C
S1131B309AFF91029AFF3D005702270027002700D1
S1131B409AFF57029AFF9AFF9AFF9AFF8C00F201BC
S1131B50E8019AFF9AFFAC009AFF1A029AFF9AFFD3
S1131B60BF01022332009A43452A00D072E7802342
S1131B70DB002B43EA0601D406220C921D0000224E
S1131B8000230721049205930023089F3893073705
S1131B908F4303CF44904591B2E1089B40CB089317
S1131BA058E70B9B259A934204DC0DD10A9B249A97
S1131BB0934209D9A368013BA360002B0DDB236882
S1131BC05A1C2260389A1A700120249A259B0021FD
S1131BD012184B412492259350E721003898FFF7BF
S1131BE007FCF1E721003000FFF702FC6FE70B9BD5
S1131BF0239A934204DC0DD10A9B229A934209D979
S1131C00A368013BA360002B0DDB23685A1C2260F0
S1131C1020221A700120229A239B002112184B4182
S1131C20229223935CE721002020FFF7E1FBF1E7F8
S1131C30079B013B07935DE7089B1F1D6B0606D5B9
S1131C40089B069A1B681A60D2175A6053E7AB06C2
S1131C5004D5089B069A1B681A604CE7EB0504D56B
S1131C60089B069A1B681A7045E72B06F1D5089B5A
S1131C70069A1B681A803EE7089F08CF3893002B0A
S1131C8001D1C74B3893389800F038FD0600EB06B5
S1131C9003D50C9B984200DD1E00149B2A009B1B5D
S1131CA0089301231A4014921D4218D12F330C9328
S1131CB0AB0501D420230C93069B089D1A93DB17D4
S1131CC01B93013D2BD5089B089ADB43DB1713407C
S1131CD0069AD2180692089A501EC31A0893002531
S1131CE0069B2093DB172193B54239DBF043069B17
S1131CF0C01706409B190693149B002B00D1FAE6EB
S1131D00069B089D2693DB172793013D4CD5089B22
S1131D10D843C0171840069B1B180693EBE60B9B91
S1131D201B9A934204DC0DD10A9B1A9A934209D957
S1131D30A368013BA360002B0DDB23685A1C2260BF
S1131D400C9A1A7001201A9A1B9B002112184B41FD
S1131D501A921B93B5E721000C98FFF749FBF1E7B2
S1131D600B9B219A934204DC0ED10A9B209A934246
S1131D700AD9A368013BA360002B0FDB23685A1C1C
S1131D802260389A525D1A700120209A219B00210A
S1131D9012184B41013520922193A5E7389B21006D
S1131DA0585DFFF725FBEFE70B9B279A934204DC72
S1131DB00DD10A9B269A934209D9A368013BA360DB
S1131DC0002B0DDB23685A1C226020221A7001208C
S1131DD0269A279B002112184B412692279394E7B9
S1131DE021002020FFF704FBF1E740232A00089F8D
S1131DF01A401D4248D00722073797430CCF04925C
S1131E00059380232A001A401D4241D06B461B8A49
S1131E10049300230593634B9C462B0701D4624B28
S1131E209C46624B3893EB0601D561490D40069BF5
S1131E300A980B993E93DB173F933E9A3F9B801A77
S1131E40994101220C9B52424093634608900991A8
S1131E504292439255200022419346A950540132A4
S1131E60202AFBD18222D200154201D101224092C4
S1131E706E2E00DDEDE0472E00DD1BE1402E00DD7F
S1131E800CE100230C931BE108CF05920493B8E7FF
S1131E90EB05C0D56B461B7C05920493BBE740233E
S1131EA02A00089F1A401D4217D00722073797437C
S1131EB00CCF0492059380232A001A401D4210D0AF
S1131EC06B461B8A0493002305933A4B9C462B07CD
S1131ED001D4354B9C46384BA4E708CF05920493B4
S1131EE0E9E7EB05F1D56B461B7C05920493ECE71F
S1131EF0089F08CF0493002305932F4B38932D4B51
S1131F009C4694E740232A00089F1A401D4216D09D
S1131F100722073797430CCF0492059380232A00A6
S1131F201A401D420FD06B461B8A0493002305936D
S1131F30224B9C462B0700D581E01B4B63E008CF66
S1131F4005920493EAE7EB05F2D56B461B7C0592F8
S1131F500493EDE740232A00089F1A401D421BD03A
S1131F600722073797430CCF0492059380232A0056
S1131F701A401D4224D06B461B8A04930023059308
S1131F8010212B00084A0B400D4202D0084B1D4083
S1131F900023944638934AE708CF05920493E5E773
S1131FA0412F0000482F00003C2F0000542F000058
S1131FB0FFFDFFFF4B2F0000652F00004E2F000098
S1131FC0EB05DDD56B461B7C05920493D8E7089F8F
S1131FD06B061AD50722073797430CCF0E920F933F
S1131FE02B0617D56B4638229B5E0E93DB170F9397
S1131FF00F9B002B16DA0E980F99002342428B4157
S113200004920593C64B9C4619E008CF0E93DB1748
S11320100F93E5E7EB05EBD56B4638229B181B784D
S11320205BB2E2E70E9A0F9B04920593BD4B9C466C
S1132030AB0704D4BC4B9C466B0700D47DE700235C
S1132040F0E610231D4200D091E51D43033B0C93A1
S11320508DE530006F38092800D912E700F0E1FD62
S1132060CC00B20011FF11FF11FF11FF470111FF56
S113207011FFB20000F0D5FDA60005FF05FF05FF26
S113208005FF05FF05FF05FF05FF3D0105FF05FFF2
S11320903B013D013D013D0105FF3B0132000123B0
S11320A0413A9340512218001040134200D020E1DD
S11320B00C9005E03000002358380C931128D9D92E
S11320C080232A00DB001A403A921D4200D11FE10E
S11320D000234093429B002B01DD013B4093439B33
S11320E0002B03DD409A013BD31840930C9B409A8C
S11320F041989E1800F002FB149B9E1B331A3893E0
S113210001232B403B93894B1D4200D13DE1002329
S11321101293DB171393419B129E5A1C41921B7816
S11321201493002B00D033E13B9B002B15D13033AB
S11321303993AB0501D420233993F317389D1C96AA
S11321401D93013D00D444E1389B38995A1EDB436A
S1132150DB170B40D21A3892F6183A9B002B00D0AA
S113216090E1F31710961193409B109E013B40930E
S1132170002B00DBD8E1F3171F930C9B1E965D1E0A
S1132180002B00DDF1E10C9BD843C01718408619E1
S11321907CE10F23049E1E40389B9E5D059B565494
S11321A01B079C46049B01321B091800059B1E0952
S11321B06346034304930596049E059B0C921E43B9
S11321C0E7D17DE7002246A9F6E7072104980840F5
S11321D00599303049078C4604999854CE080599DE
S11321E00133C80861463143049105900498059968
S11321F00C930843E9D163E7002346AAF6E7059B5D
S1132200049ADB0752081A43059B32925B08339306
S1132210049A059B92089B071A43059B34929B08DA
S1132220359334983599329A339B12184B411907D8
S11322301009084319092C902D912C982D991218E6
S11322404B411906100A0843190A2E902F912E9813
S11322502F9912184B411904100C0843190C309093
S113226031913098319912184B4100213C933D91A2
S11322703C983D9912184B415907D00808432A90BD
S113228000210620DB082B93049A059B12184B416E
S11322902A982B990C920D930A22002300F095FCA6
S11322A00C9A0D9B121A8B411000190002091B078E
S11322B01A430B0936923793369837992A9A2B9BEF
S11322C0801859410A224243049B049005913033FB
S11322D09B1A9C4628233CAAD21863469355013680
S11322E0049B059A0C96134300D088E7E8E6002681
S11322F0F6E743AB039342AB029340AB019341AB8C
S1132300009330002B00569E46AA44A9B047CFE65E
S1132310409B0C9A9B1A00D4E7E63A9BE5E6C0463C
S1132320502F0000522F0000232F00000102000054
S1132330099B159A934204DC0DD1089B149A93428D
S113234009D9A368013BA360002B19DB23685A1C3D
S1132350226020221A700120149A159B0021121861
S11323604B4114921593389B5A1E149BD31ADFD5F4
S1132370389B3899DB43DB170B40D21A3892C7E6F7
S113238021002020FFF734F8E5E700220023E8E7E6
S1132390099B139A934204DC0DD1089B129A934231
S11323A009D9A368013BA360002B0DDB23685A1CE9
S11323B02260149A1A700120129A139B0021121899
S11323C04B4112921393A6E621001498FFF710F8DC
S11323D0F1E7099B1D9A934204DC0DD1089B1C9ADA
S11323E0934209D9A368013BA360002B0DDB23684A
S11323F05A1C2260399A1A7001201C9A1D9B0021D4
S113240012184B411C921D939BE621003998FEF74C
S1132410EFFFF1E7149A46ABD05CF3173C2825D0C4
S11324203E286BD116961793439B169D013B43930D
S1132430002B23DB099B179A934204DC0DD1089BE4
S1132440169A934209D9A368013BA360002B50DB81
S113245023685A1C226030221A700120169A179B96
S1132460002112184B4116921793DDE71896199321
S1132470429B189D013B4293002B19DA2E00149BBA
S1132480013314930C9B149A9342C3DC3B9B002BA3
S11324900BD0F317389D28962993013D00D486E08C
S11324A0389BD843C01718403618069B9B1934E450
S11324B0099B199A934204DC0DD1089B189A934204
S11324C009D9A368013BA360002B0DDB23685A1CC8
S11324D0226030221A700120189A199B00211218C8
S11324E04B4118921993C3E721003020FEF780FF77
S11324F0F1E721003020FEF77BFFAEE7099A751C57
S1132500934203DBBAD1089BB342B7D9A368013B1A
S1132510A360002B04DB23685A1C22601870ADE70B
S11325202100FEF765FFA9E7099B119A934204DC99
S11325300DD1089B109A934209D9A368013BA3606B
S1132540002B0DDB23685A1C226030221A700120F4
S1132550109A119B002112184B411092119303E61B
S113256021003020FEF744FFF1E7099B1F9A9342B4
S113257004DC0ED1089B1E9A93420AD9A36846AA8A
S1132580013B505DA360002B0DDB23685A1C2260C5
S1132590187001201E9A1F9B002112184B411E9295
S11325A01F932B00EBE52100FEF722FFF1E7099BC7
S11325B0299A934204DC0DD1089B289A934209D9A5
S11325C0A368013BA360002B0DDB23685A1C226027
S11325D020221A700120289A299B002112184B41AD
S11325E02892299359E721002020FEF701FFF1E703
S11325F0F0B507000C0015001E0097B0002803D1A9
S1132600002926D1013406AF3C22002107A800F09E
S113261063FA0A23621E00240A930F4B0095099360
S11326200E4B0196029307A823000797FFF740F982
S1132630099B05000593013B0993A34204DB079B17
S11326401C70280017B0F0BD200007A9FEF7D0FECB
S1132650F7E701256D42F4E7FFFFFF7F3B2B000006
S11326600FB473B506AB40CB012132006846019329
S1132670FFF7BEFF041E14DD451C2800FEF7C4FF4F
S1132680009000280DD032002900019BFFF7B0FF15
S1132690064B22000099186D00F0EFFA009800F044
S11326A01FFA200076BC08BC04B01847C0E0FF1F26
S11326B0F0B5C56804000120AE070CD0802080006E
S11326C0824213D08020C000824205D08020400086
S11326D082420BD0FF38F0BD2100012324312A436C
S11326E0002021612160E361E260F4E7024F5E1E95
S11326F00120BE42F3D9EEE7FEFFFF00032310B52D
S1132700411C0200184217D1104C136810481818C5
S11327109843204217D0DCB2501C002C11D0FF2467
S11327202402901C23420CD0FF2000040340581EB6
S11327308341D318D81C04E00130421E1278002AC9
S1132740DFD1401A10BD0432DFE7C04680808080AC
S1132750FFFEFEFE70B50D4D04002B68002B01D169
S11327600B4B2B6003232E6803349C433419200045
S113277000F09CF8002802D12C60300070BD0C22BF
S11327800126044B76421A60F7E7C04674E1FF1F46
S113279080E1FF1F7CE1FF1FF7B50D0001901000E1
S11327A0140000F033F82B78722B1CD0772B1DD03B
S11327B0612B26D1144A593B0220691C0327844605
S11327C00426012508782B2813D0622816D0E2604D
S11327D0019A62611B0704D5022200212000FEF742
S11327E08BFF2000FEBD00230122E5E70423022223
S11327F0E2E760463A4303430131E3E732432B43C4
S1132800FAE70024EDE7C04602800000F0B5C56891
S1132810040089B0AB0722D02B0718D44769066996
S113282000F022F8380000F004FA2B0502D530003D
S113283000F056F90B4BAD0DAD059D4207D120229A
S11328406846216A00F013FA684600F078F93C22E1
S11328500021200000F040F9002009B0F0BD012063
S11328604042FAE7000080AD73B5002813D000F0B1
S113287027F80500280076BD30006043094BC018D6
S113288000F01EF8002801D001256D420134019B9F
S1132890A342F1DCEEE7044B04001B6805003C2670
S11328A00193F4E7C0E0FF1F0C2F0000034B02006C
S11328B0181E02D000209A424041704780E9FF1F51
S11328C0C36870B503221E0004001640134211D0E1
S11328D09B0611D5856AFEF76BFDE268094B200063
S11328E01340E360FEF72CFE0022060029002000BE
S11328F0FEF702FF300070BD036882699D1803690A
S1132900ED1AEAE7FFCFFFFF80B582B000AF786031
S11329100A00FB1C1A70FB1C1B78002B08D07B6878
S1132920DB78DBB208221343DAB27B68DA7007E0A3
S11329307B68DB78DBB208229343DAB27B68DA7017
S1132940C046BD4602B080BD80B582B000AF78609D
S11329500A00FB1C1A70FB1C1B78002B08D07B6838
S1132960DB78DBB204221343DAB27B68DA7007E067
S11329707B68DB78DBB204229343DAB27B68DA70DB
S1132980C046BD4602B080BD80B582B000AF78605D
S11329900A00FB1C1A70FB1C1B78002B08D07B68F8
S11329A0DB78DBB208221343DAB27B68DA7007E023
S11329B07B68DB78DBB208229343DAB27B68DA7097
S11329C0C046BD4602B080BD80B582B000AF78601D
S11329D00A00FB1C1A70FB1C1B78002B08D07B68B8
S11329E0DB78DBB204221343DAB27B68DA7007E0E7
S11329F07B68DB78DBB204229343DAB27B68DA705B
S1132A00C046BD4602B080BD90B587B000AFF86047
S1132A107A603B600B243B190A1C1A70FA68102078
S1132A203B181A603B183A1912781A713A68796897
S1132A3038180023FDF70CFD00231800BD4607B02D
S1132A4090BD80B500AFFDF7CFFD03001800BD4673
S1132A5080BD80B582B000AF3A60FB1D021C1A70C5
S1132A60BB1D0A1C1A703A68BB1D1978FB1D1B7824
S1132A701800FDF785FF03001800BD4602B080BDB5
S1132A8080B500AFFEF7C2FBC046BD4680BD80B531
S1132A9000AFC046BD4680BD80B500AFFFF7F7FF6D
S1132AA0C046BD4680BD80B500AF00F005F8FEF716
S1132AB005FCC046BD4680BD80B500AFC046BD46DE
S1132AC080BD80B500AFC046BD4680BD10B5FEF7E1
S1132AD0B1FEFDF721FD10BD10B500F08DF810BD5D
S1132AE010B5002811D080210C3849050160826896
S1132AF0002A0AD013688B4207D143685468033311
S1132B001B19436093688360F1E710BD70B50C0036
S1132B100500287800280FD0A368013BA360002B90
S1132B2005DB23685A1C226018700135F1E7210087
S1132B30FEF75EFC431CF8D170BD0020704710B551
S1132B400400FFF7DBFD0100200000F084F810BD55
S1132B5003000B4321D4002931D00122D2070309F9
S1132B6001E0090112099942FBD9430801E0490037
S1132B7052089942FBD900E04908401A07D3524150
S1132B80FAD301461046704749084018F7D2921804
S1132B90FAD34018014610467047CB0F00D0494283
S1132BA0021000D54042534008B5FFF7D4FF0CBCD7
S1132BB0521000D34042002A00D549421847F44637
S1132BC0002000F001F86047704710B543435143BB
S1132BD0C918040C130C5C43091992B2040C544335
S1132BE080B2434350432204240C801861411A04E8
S1132BF01B0C8018594110BD8446043A09D383073D
S1132C0007D109060B0A19430B0C1943043A02C0F5
S1132C10FCD2043203D001700130013AFBD160468A
S1132C2070478C46411E7144095E49008E446146DA
S1132C30704703B469460220ABBE02B0704703B4C8
S1132C4069460C20ABBE02B0704703B46946092044
S1132C50ABBE02B0704703B469460E20ABBE02B0EF
S1132C60704703B469460A20ABBE02B070470FB484
S1132C7069460D20ABBE04B070470FB46946052009
S1132C80ABBE04B07047FFFF2E66736C5F64656271
S1132C9075675F636F6E736F6C652E633A313035A1
S1132CA0203A2064657669636520213D20444542CD
S1132CB055475F434F4E534F4C455F444556494338
S1132CC0455F545950455F4E4F4E45002E66736C18
S1132CD05F696F2E633A323535203A204E554C4C9D
S1132CE020213D20696F00FF48656C6C6F20576F91
S1132CF0726C640A00FFFFFF2E66736C5F636C6F77
S1132D00636B2E633A323338203A20675F787461FC
S1132D106C304672657100FF2E66736C5F636C6F76
S1132D20636B2E633A363039203A206D6367706CDA
S1132D306C30636C6B00FFFF8002DC020005B80599
S1132D4080079508000A710B2E66736C5F6C7073B4
S1132D5063692E633A313337203A20696E737461A4
S1132D606E6365203C2041525241595F53495A4594
S1132D7028735F6C7073636942617365732900FF24
S1132D802E66736C5F6C707363692E633A323038ED
S1132D90203A20636F6E6669670000002E66736CCC
S1132DA05F6C707363692E633A323039203A206362
S1132DB06F6E6669672D3E62617564526174655F0A
S1132DC0427073002E66736C5F6C707363692E635C
S1132DD03A333336203A20636F6E66696700FFFF2B
S1132DE00000000000B0064000C0064000000000E3
S1132DF00B0034100C0034102E66736C5F75617216
S1132E00742E633A313631203A20696E7374616EE0
S1132E106365203C20756172744172726179436FFD
S1132E20756E74002E66736C5F756172742E633AEE
S1132E30323034203A20636F6E6669670000000008
S1132E402E66736C5F756172742E633A323035206E
S1132E503A20636F6E6669672D3E626175645261E4
S1132E6074655F42707300FF2E66736C5F756172E8
S1132E70742E633A333633203A20636F6E66696783
S1132E8000FFFFFF0000000000000100433A5C5512
S1132E90736572735C41444D494E545C446F637571
S1132EA06D656E74735C4D43555870726573736FC2
S1132EB04944455F31312E322E305F343132305C3B
S1132EC0776F726B73706163655F6C65645C4D4BA7
S1132ED04C34365A323536787878345F50726F6AAB
S1132EE06563745F74756C7431365C64726976659D
S1132EF072732F66736C5F706F72742E683A323718
S1132F0030203A20636F6E66696700FF030000009B
S1132F102A2A2A20617373657274206661696C655C
S1132F2064203A20002A2A2A205F437379735F6160
S1132F306C6C6F63206661696C65640A007200776B
S1132F4000286E756C6C2900305800307800300011
S1132F502D002B0030313233343536373839414285
S1132F6043444546003031323334353637383961DD
S10B2F70626364656600FFFF63
S10B2F7800800000000040018C
S90300D527
